:020000040800F2
:10000000000003205DCE00083DC7000841C700087E
:1000100051C7000855C7000859C700080000000074
:10002000000000000000000000000000B16D0008AA
:100030005DC7000800000000416E0008A56E0008C2
:10004000ADCE0008ADCE0008ADCE0008ADCE0008A4
:10005000ADCE0008ADCE0008ADCE0008ADCE000894
:10006000ADCE0008ADCE0008ADCE0008ADCE000884
:10007000ADCE0008ADCE0008ADCE0008ADCE000874
:10008000ADCE0008ADCE0008ADCE0008ADCE000864
:10009000ADCE0008ADCE0008ADCE0008ADCE000854
:1000A000ADCE0008ADCE0008ADCE0008ADCE000844
:1000B000ADCE0008ADCE0008ADCE0008ADCE000834
:1000C000ADCE0008ADCE0008ADCE0008ADCE000824
:1000D000ADCE0008ADCE0008ADCE0008ADCE000814
:1000E000ADCE0008ADCE0008ADCE0008ADCE000804
:1000F000ADCE0008ADCE0008ADCE0008ADCE0008F4
:10010000ADCE0008ADCE0008ADCE0008ADCE0008E3
:10011000ADCE0008ADCE0008ADCE0008ADCE0008D3
:10012000ADCE0008ADCE0008ADCE0008ADCE0008C3
:10013000ADCE0008ADCE0008ADCE0008ADCE0008B3
:10014000ADCE0008ADCE0008ADCE0008ADCE0008A3
:10015000ADCE0008ADCE0008ADCE0008ADCE000893
:10016000ADCE0008ADCE0008ADCE0008ADCE000883
:10017000ADCE000879C70008ADCE00080000000031
:10018000ADCE0008ADCE0008ADCE0008ADCE000863
:10019000ADCE0008ADCE0008ADCE0008ADCE000853
:0C01A0006DC70008ADCE0008ADCE000811
:1001B00010B5054C237833B9044B13B10448AFF3A1
:1001C00000800123237010BD4801002000000000C2
:1001D0006867010808B5034B1BB103490348AFF337
:1001E000008008BD000000004C0100206867010885
:1001F00001F0FF01102A2BDB10F0070F08D010F8D8
:10020000013B013A8B422DD010F0070F42B3F6D1DB
:10021000F0B441EA012141EA014122F007047FF0F4
:1002200000070023F0E80256083C85EA010586EA4B
:10023000010685FA47F5A3FA87F586FA47F6A5FA87
:1002400087F68EB9EED1F0BC01F0FF0102F0070293
:1002500032B110F8013B013A83EA010313B1F8D13E
:100260000020704701387047002D06BF354603381F
:10027000073815F0010F07D1013015F4807F02BF58
:10028000013015F4C03F0130F0BC0138704700BFA9
:1002900053B94AB9002908BF00281CBF4FF0FF31ED
:1002A0004FF0FF3000F074B9ADF1080C6DE904CEE9
:1002B00000F006F8DDF804E0DDE9022304B0704741
:1002C0002DE9F047089E04468846002B40F08580C3
:1002D0008A42154648D9B2FA82F24AB1C2F12007E1
:1002E00001FA02F320FA07F7954047EA0308944021
:1002F0004FEA154E230CB8FBFEF71FFA85FC0EFBE8
:10030000178843EA084307FB0CF1994209D9EB1817
:1003100007F1FF3080F0E380994240F2E080023F35
:100320002B445B1AA4B2B3FBFEF00EFB103344EA7D
:10033000034400FB0CFCA44509D92C1900F1FF3340
:1003400080F0CB80A44540F2C88002382C4440EABB
:100350000740A4EB0C0400271EB1D4400023C6E9DB
:1003600000433946BDE8F087002A53D0B2FA82F242
:10037000002A40F0B680491B4FEA154E1FFA85F857
:100380000127B1FBFEFC230C0EFB1C1143EA0143C9
:1003900008FB0CF1994207D9EB180CF1FF3002D29F
:1003A000994200F2EC808446591AA3B2B1FBFEF0E8
:1003B0000EFB101443EA044408FB00F8A04507D9DB
:1003C0002C1900F1FF3302D2A04500F2DC80184660
:1003D000A4EB080440EA0C40BEE78B4208D9002E8B
:1003E00078D00027C6E9000138463946BDE8F087D5
:1003F000B3FA83F77FB98B4202D3824200F2BD8009
:10040000841A61EB030301209846002EA9D0C6E9A7
:100410000048A6E7FFDEC7F12005BB4022FA05FC35
:100420004CEA030C01FA07F420FA05F821FA05F367
:100430004FEA1C4E48EA0404B3FBFEF9210C0EFB04
:1004400019331FFA8CF841EA034309FB08FA9A456D
:1004500002FA07F200FA07F10BD91CEB030309F1CA
:10046000FF3080F088809A4540F28580A9F102092A
:100470006344A3EB0A03A4B2B3FBFEF00EFB1033FC
:1004800044EA034400FB08F8A04508D91CEB040427
:1004900000F1FF336BD2A04569D90238644440EAC9
:1004A0000940A4EB0804A0FB02894C45C6464B4614
:1004B00054D351D0002E69D0B1EB0E0264EB03048B
:1004C00004FA05F522FA07F3FC401D43C6E900547F
:1004D000002746E73746304643E7184637E70746E2
:1004E0001FE7C2F1200320FA03F7954001FA02F05A
:1004F00021FA03F34FEA154E3843010CB3FBFEF724
:100500001FFA85F80EFB173341EA034107FB08F396
:100510008B4204FA02F407D9691807F1FF3C28D28C
:100520008B4226D9023F2944CB1A81B2B3FBFEF09D
:100530000EFB103341EA034100FB08F38B4207D95D
:10054000691800F1FF3C10D28B420ED902382944C1
:10055000C91A40EA074714E74145ABD2B8EB020E8F
:1005600069EB0C0201381346A4E76046F0E7184631
:1005700095E76746D8E781467BE7384645E7ACF123
:10058000020C2B4410E702382C4421E73746E8E6FA
:10059000704700BF1049114BD1F8882042F4700217
:1005A00010B4C1F888201A680D4C002042F00102F6
:1005B0001A6098601A6822F0847222F480321A60FD
:1005C0005C601A684FF0006422F480221A60D860E0
:1005D0008C605DF8044B704700ED00E0003802408D
:1005E00010300024704700BFF0B138B590F82C30BF
:1005F00004460D4603F0FF028BB12146022351F859
:10060000040B84F82C3002F08DFD2946D4E9000259
:1006100002F0C8FD012384F82C30002038BD80F89A
:100620002D20FFF7DFFFE8E70120704738B590F88D
:100630002C30DBB2022B10D00D460223044680F88A
:100640002C30006802F0F8FD2B68022B0CBF05234C
:10065000012384F82C30002038BD184638BD00BF77
:1006600090F82C30DBB2022B0CD010B502230446DC
:1006700080F82C30006802F00FFE012384F82C3043
:10068000002010BD18467047002800F06D812DE94C
:10069000F0410368DD0782B004462FD5AD498A6872
:1006A00002F00C02042A00F0ED808A6802F00C02CD
:1006B000082A00F0E3806368B3F5803F00F0EC8027
:1006C000B3F5A02F00F05281A24D2A6822F48032A7
:1006D0002A602A6822F480222A60002B40F0E18000
:1006E00002F0FEFB064605E002F0FAFB801B6428E0
:1006F00000F201812B689B03F6D423689F0728D55D
:10070000944A916811F00C0F00F09B80916801F001
:100710000C01082900F09180E368002B00F00881AB
:100720008D4B8C4D01221A6002F0DAFB064605E083
:1007300002F0D6FB801B022800F2DD802B689807B0
:10074000F6D52B68226923F0F80343EAC2032B6035
:1007500023681A075DD458073BD57E4A136C13F003
:10076000805340F089800193136C43F080531364ED
:10077000136C03F080530193019B0126774D2B6886
:10078000D90540F1A880A368012B00F0B880052BA3
:1007900000F028816F4D2A6F22F001022A672A6F2C
:1007A00022F004022A67002B40F0AE8002F098FB92
:1007B00041F28837804606E002F092FBA0EB080089
:1007C000B84200F298802B6F9807F5D4002E40F0C5
:1007D000D780A369CBB15F4DAA6802F00C02082A4A
:1007E00036D0022B5E4B4FF000021A6000F0CE8034
:1007F00002F076FB2C46054604E002F071FB401B3C
:10080000022878D823689B01F7D4002002B0BDE805
:10081000F081636903B3534B4E4D01221A6002F01D
:100820005FFB064604E002F05BFB801B022862D8F7
:100830006B6F9B07F7D523688DE7526856023FF52B
:100840006BAF444A1268950739D5E268012A36D061
:10085000012002B0BDE8F081424A3E4D136002F033
:100860003FFB064604E002F03BFB801B022842D817
:100870006B6F9F07F7D4DEE700267FE74A685002D8
:100880007FF519AF334A126891037FF537AF62687D
:10089000002A7FF433AFDBE72E4A136843F480333A
:1008A000136002F01DFB2B4D064604E002F018FB1E
:1008B000801B64281FD82B689A03F7D51DE72549AC
:1008C00020690A6822F0F80242EAC0020A601A07A8
:1008D0007FF541AF9DE72B6843F480732B6002F0F6
:1008E000FFFA07462B68DA053FF54DAF02F0F8FA3C
:1008F000C01B0228F6D9032002B0BDE8F081154ADA
:10090000136F43F00103136702F0EAFA114D8046BA
:1009100041F2883705E002F0E3FAA0EB0800B842A4
:10092000E9D82B6F9B07F6D5002E3FF452AF27E096
:10093000094A084D136002F0D3FA064604E002F0BB
:10094000CFFA801B0228D6D82B689907F7D42368E2
:10095000FFE600BF00380240000047420070004040
:1009600060004742800E474201207047224B1A68C0
:1009700042F480221A601A6842F480321A6090E7CA
:100980001D4A136C23F08053136422E702F0A8FA87
:10099000064604E002F0A4FA801B0228ABD82B68BC
:1009A0009901F7D4D4E90736D4E90902E16A124C77
:1009B000334343EA8013520843EA0163013A0F4983
:1009C00043EA024301226B600A6002F089FA05469D
:1009D00004E002F085FA401B02288CD823689A01B3
:1009E000F7D512E7044B1A6F42F004021A671A6F28
:1009F00042F001021A6787E7003802406000474270
:100A0000174908B58B6803F00C03042B1BD0082B87
:100A100017D14A684B6813F4800302F03F0214D1E7
:100A200049681048C1F38811A1FB0001FFF730FCB1
:100A30000B4B5B68C3F3014301335B00B0FBF3F086
:100A400008BD084808BD084808BD4B680648C3F300
:100A50008813A3FB00010023FFF71AFCE8E700BF9F
:100A6000003802400024F40000127A0060B1494AC4
:100A7000136803F00F038B4208D2CBB213701368D4
:100A800003F00F038B4201D00120704703682DE96A
:100A9000F0419C0714D55A0704D53F4CA26842F494
:100AA000E052A2601F0704D53B4CA26842F46042AA
:100AB000A260394C8568A26822F0F0022A43A26045
:100AC000DE0780460C4622D54268012A5BD0931E81
:100AD000012B314B1B6853D9990725D52E4DAB6897
:100AE00023F003031343AB6002F0FAF941F28836B6
:100AF000074604E002F0F4F9C01BB04248D8AB68E6
:100B0000D8F8042003F00C03B3EB820FF2D1214A92
:100B1000136803F00F03A34209D9E3B213701368FB
:100B200003F00F03A34202D00120BDE8F081D8F802
:100B300000305A0707D51849D8F80C008A6822F403
:100B4000E05202438A601B0708D5134AD8F81010F8
:100B5000936823F4604343EAC1039360FFF750FFB7
:100B60000D4B0E499B680E4AC3F30313CB5C20FA6E
:100B700003F30F20136002F075F90020BDE8F08147
:100B80009801ABD4D0E7044B1B689D03A6D4CBE7F8
:100B90000320CAE7003C0240003802409495010857
:100BA0006C000020044B054A9B680549C3F382236F
:100BB0000868D35CD840704700380240A49501080B
:100BC0006C0000202DE9F04105460E461746984678
:100BD0007A1C2C6803D00AE063695B0527D460693E
:100BE00026EA000080B20028F6D1BDE8F0816069F5
:100BF00026EA000080B20028F7D06369590516D4B0
:100C000002F06EF9A0EB0800B84201D8002FDFD146
:100C1000002220232A6385F83D3085F83E202B6C86
:100C200085F83C2043F020032B640120DDE7236896
:100C300000226FF4806043F4007320212360606120
:100C40002A6385F83D1085F83E202B6C85F83C2002
:100C500043F004032B640120BDE8F0812DE9F04747
:100C600004460068066882B046F48066066006683E
:100C70000A9D0B9F46F480768A46691C90469946E9
:100C8000066014D14369DE07FCD55FFA8AFA0AF0E0
:100C9000FE0303614FF0FF323B4675492046FFF7E4
:100CA00091FF002876D0012002B0BDE8F0874369AB
:100CB000DA070AD402F014F9C01B854278D3002D5C
:100CC00076D020684369DB07F4D55FFA8AFA0AF028
:100CD000FE0303612A463B4665492046FFF772FF43
:100CE0000028E0D1236801905A6901929A69019223
:100CF000019A5A6912060FD45A69500530D402F08D
:100D0000EFF8C01B8542C0F0A580002D00F0A28046
:100D100023685A691106EFD5B9F1010F15D04FEAD2
:100D200018221A615A6911060FD45A69500517D44E
:100D300002F0D6F8C01B8542C0F08C80002D00F078
:100D4000898023685A691106EFD55FFA88F21A6123
:100D50006A1C5CD15A69100638D45A695105F9D514
:100D600000226FF4806020215861226384F83D10D6
:100D700084F83E20236C84F83C2043F00403236471
:100D8000236C042B8FD12268136843F40073136023
:100D9000012089E7236801905A6901929A690192BA
:100DA000019A5A69120625D45A695605F9D5D7E72A
:100DB00000222023226384F83D3084F83E20236CF7
:100DC00084F83C2043F0200323646CE71A6842F463
:100DD00080721A605A69D607FCD54AF001061E6176
:100DE0002A463B4620462249FFF7ECFE003018BF5A
:100DF000012059E7B9F1010FA7D04FEA18221A6173
:100E00005A691206A1D45A695605F9D5A8E75A6954
:100E100016060CD45A695005A2D402F061F8C01B22
:100E2000854217D3B5B123685A691106F2D51A68FD
:100E300042F480721A605A69D007CED402F050F89A
:100E4000C01B8542B4D3002DB2D023685A69D207A3
:100E5000F4D5C2E700222023226384F83D3084F8D1
:100E60003E20236C84F83C2043F02003236487E772
:100E7000020001002DE9F0430446006883B00568D4
:100E80000A9E45F480750560751C0F46904699468C
:100E900012D14369DB07FCD507F0FE0707610B9B06
:100EA00056494FF0FF322046FFF78CFE002855D000
:100EB000012003B0BDE8F0834369D9070BD402F0E9
:100EC0000FF80B9BC01A86426ED3002E6CD02068A0
:100ED0004369DA07F3D507F0FE0707610B9B474923
:100EE00032462046FFF76EFE0028E1D123680190CC
:100EF0005A6901929A690192019A5A6912060ED4AE
:100F00005A69570537D401F0EBFF0B9BC01A864294
:100F100066D3002E64D023685A691506F0D5B9F15E
:100F2000010F14D04FEA18221A615A6911060ED423
:100F30005A6952051FD401F0D3FF0B9BC01A864299
:100F40004ED3002E4CD023685A691706F0D55FFAAD
:100F500088F200201A6103B0BDE8F0832368019095
:100F60005A6901929A690192019A5A6910062AD423
:100F70005A695105F9D500226FF48060202158612B
:100F8000226384F83D1084F83E20236C84F83C20D2
:100F900043F004032364236C042B89D12268136873
:100FA00043F40073136083E700222023226384F854
:100FB0003D3084F83E20236C84F83C2043F020032D
:100FC0002364012075E7B9F1010FC0D04FEA182260
:100FD0001A615A691506BAD45A695005F9D5CAE793
:100FE00000222023226384F83D3084F83E20236CC5
:100FF00084F83C2043F020032364CCE70200010086
:10100000704700BF002800F0AA80F8B590F83D3086
:10101000044603F0FF02002B00F08A80226824239C
:1010200084F83D30136823F001031360FFF7BAFD25
:1010300065684C4B9D424BD84B4B984276D9226801
:101040004A4B5168A3FB00639B0C21F03F011943FD
:101050005160116A013321F03F010B431362D169E2
:10106000431E6D0040F6FC70B3FBF5F3013321F431
:101070004F41034221F0FF015FD104230B43D361B1
:10108000D4E907351068216920F0C0002B430343E1
:1010900013609068E568636920F4034020F0FF0066
:1010A000294301439160D168A06921F0FF01034306
:1010B0000B43D3601168002341F00101202511602A
:1010C0001846236484F83D50236384F83E30F8BD0D
:1010D000274B98422AD92268244B5668254FA3FBF8
:1010E0000013990C26F03F060E434FF4967356609A
:1010F00003FB01F3A7FB0313116AA6689B0921F008
:101100003F0101330B431362D16921F44F41013890
:1011100021F0FF01A6B905EB4505B0FBF5F0013064
:10112000C0F30B00C8B140F40043A7E70120F8BDAD
:1011300080F83C20FFF764FF70E7C3F30B039DE7E3
:1011400005EB850505EB8505B0FBF5F00130C0F337
:101150000B0010B140F4404390E701238EE70120DB
:10116000704700BFA08601007F841E0083DE1B4302
:10117000FF083D00D34D6210704700BFB0B1026858
:10118000242310B580F83D30136823F00103044692
:101190001360FFF7F1FF0023236484F83C3084F8E8
:1011A0003D301846236384F83E3010BD012070475F
:1011B0002DE9F04F044683B099460F469046BDF89E
:1011C00034A00E9D01F08CFE94F83D30202B04D00D
:1011D0000227384603B0BDE8F08F064605E001F06F
:1011E0007FFE801B192800F29F8022689369DB43F1
:1011F00013F0020BF3D094F83C30012BE8D01368C5
:101200000121D80784F83C1040F1848013686348BA
:1012100023F400631360212384F83D30402200232F
:1012200084F83E202364A4F82AA0B4F82AC00C9BBA
:1012300063623946CDE900564B46E0624246A4F867
:1012400028C02046FFF716FE0746F0B9228D236816
:10125000002A45D06A1C1DD15A6912062BD45A693E
:101260005005F9D500226FF4806020215861226377
:1012700084F83D1084F83E20236C84F83C2043F031
:1012800004032364236C042B48D00127384603B0A1
:10129000BDE8F08F5A6911060DD45A695205E1D4A0
:1012A00001F01EFE801B854269D3002D67D02368A4
:1012B0005A691006F1D5D4F824C0B4F828E0604685
:1012C0000EF1FF3110F8012B1A61628D6062013A54
:1012D00092B2628558698AB24107228517D542B910
:1012E000681C2FD15A6951073CD45A695205F9D567
:1012F000B8E79CF801201A61608DAEF10202013856
:1013000092B20CF1020180B2228561626085002AEE
:10131000A0D1E5E713680B43136077E722681368F1
:1013200043F400731360B0E72023C4F830B084F8AE
:101330003D3084F83EB0236C84F83CB043F0200389
:10134000236445E75A6950070CD45A69510589D47A
:1013500001F0C6FD801B854211D385B123685A690F
:101360005207F2D51A680021202042F400721A6058
:1013700084F83D0084F83C1084F83E1029E70022F0
:101380002023226384F83D3084F83E20236C84F8C7
:101390003C2043F02003236474E700BF0000FFFFFC
:1013A0002DE9F04F044687B099460F469046BDF8A8
:1013B00044A0129D01F094FD94F83D30202B04D000
:1013C0000227384607B0BDE8F08F064605E001F079
:1013D00087FD801B192800F2CA8022689369DB43CD
:1013E00013F0020BF3D094F83C30012BE8D01368D3
:1013F0000121DB0784F83C1037D51368A24823F499
:1014000000631360222384F83D304022002384F8D7
:101410003E202364A4F82AA0B4F82AC0109B63627B
:101420003946CDE900564B46E0624246A4F828C052
:101430002046FFF713FC0746002840F0A680228DC7
:101440002368B2B902905A6902929A690292029A8A
:101450001A6842F400721A600023202284F83D20AA
:1014600084F83C3084F83E30ABE713680B431360DC
:10147000C3E7012A00F00A81022A00F09C8005904F
:1014800059690591996905910599032A49D8012A55
:1014900000F0CA80022A00F08880681C40F09A8020
:1014A0005A695107FCD51A68616A22F480621A6091
:1014B0001B690B70638D616A228D013B9BB2013108
:1014C000013A638561622285681C236840F08E8042
:1014D0005A695107FCD51A68616A42F400721A60B1
:1014E0001B690B70638D606A218D2268013B9BB282
:1014F0006385126900F1010C4B1EC4F824C02385DA
:101500004270228D638D616A013A013B92B29BB2B7
:101510000131228563856162002A9DD0032A2368F8
:10152000B5D955B9A2E05A69D20600F18F8001F011
:10153000D7FC801B854265D323685A695106F2D5D2
:10154000626A1B691370618D2368228D606A01399C
:1015500089B261855969013A92B200F1010C4907DB
:101560002285C4F824C0D7D51B694370C9E720235E
:10157000C4F830B084F83D3084F83EB0236C84F871
:101580003CB043F0200323641AE70127384607B034
:10159000BDE8F08F5A6952079DD401F0A1FC801B71
:1015A00085422FD3002D2DD02368681CF2D15A69B3
:1015B0005107FCD58FE7196821F48061196019681B
:1015C00041F400611960049059690491996904918A
:1015D00004995AE75A6952073FF565AF01F080FC5C
:1015E000801B85420ED36DB1236856E75A695207B6
:1015F0003FF571AF01F074FC801B854202D3002DD2
:101600007FF462AF00222023226384F83D3084F807
:101610003E20236C84F83C20012743F02003384609
:10162000236407B0BDE8F08F4DB929E05A69D106AF
:101630000CD401F055FC801B8542E3D323685A6922
:101640005006F3D5626A1B6913705AE700226FF0E7
:10165000100020215861226384F83D1084F83E2058
:10166000236C84F83C2023640127AAE65A695006BB
:101670003FF566AF5A69D006E8D401F031FCC1E706
:101680005A695206F6D5DDE70000FFFF196821F41C
:1016900080611960039059690391996903910399D5
:1016A000196841F400711960EFE600BF90F83D0041
:1016B000704700BFF8B5044601F012FC002C58D06A
:1016C0002368022284F835201A68002122F00102E2
:1016D00084F834101A601A680546D00710D503E064
:1016E00023681A68D1070BD501F0FAFB401B0528C7
:1016F000F6D9032320226265184684F83530F8BDF8
:10170000D4E90126D4E90351324360691F682A43B2
:10171000D4E906650A430243216A324832432A4328
:101720000A43616A3840042942EA000223D01A6061
:101730005A6922F007021143D8B22B4A5961A0F12D
:101740001001A2FB01021209284823F47F73805C78
:10175000E06523F003035F2988BF04333F22824002
:1017600000210125A36508469A60616584F835501B
:10177000F8BD0120F8BDD4E90B0101430A43A56A75
:101780001A60596921F00701294341F0040100283A
:10179000D2D07EB1B6F5005F17D0022D03D9032D4C
:1017A000CAD1C201C8D5012340226265184684F817
:1017B0003530F8BD012D04D0002DF2D0022DBBD163
:1017C000EFE7B0F1C07FB7D1EDE7032DB4D801A2A8
:1017D00052F825F0A7170008A3170008A71700085C
:1017E000C31700083F8010F0ABAAAAAAAC95010865
:1017F000002836D0034690F83500C0B2022832D017
:101800001A681949D0B2103870B4A1FB006115688C
:10181000164C090925F00105665C15600021116070
:1018200051609160D160116122F47F7121F0030158
:1018300021245F28546188BF04313F240022B44032
:10184000DE659965C3E90F22C3E91122C3E91322BA
:1018500010468C605A6583F8342083F8352070BCBC
:101860007047012070477047ABAAAAAAAC9501083F
:10187000074AD36800024FF6FF0100F4E0600B4016
:10188000184340F0BF6040F40030D060704700BFA4
:1018900000ED00E0184B30B4DC68C4F30224C4F15E
:1018A0000705042D04F1040328BF0425062B18D9CD
:1018B000033C4FF0FF33A34022EA03024FF0FF3313
:1018C000AB4021EA0303A34013431B010028DBB212
:1018D0000ADB00F1604000F5614080F8003330BC65
:1018E000704700221446E9E7044A00F00F00024462
:1018F000137630BC704700BF00ED00E0FCEC00E068
:10190000002807DB00F01F0101234009024A8B4039
:1019100042F82030704700BF00E100E00138B0F12C
:10192000807F0ED2084B10B4084C5860F02084F829
:1019300023000022072110469A6019605DF8044BCD
:1019400070470120704700BF10E000E000ED00E0AC
:1019500084B070B4099E04AD012E044685E80E00E3
:1019600031D1836B109A23F480338363C36823F4EB
:10197000840323F04003C360C368012A23F44013A7
:10198000C36043D0264B01E0013B44D02269002ACA
:10199000FADA2269224B42F00102226101E0013BA6
:1019A00039D0206910F00100F9D1079B012B07D134
:1019B000A36843F00603A360A36843F02003A36079
:1019C00070BC04B07047C268154B42F04002C26060
:1019D00001E0013B21D02269002AFADA2269104B8A
:1019E00042F00102226101E0013B16D0206910F0B3
:1019F0000100F9D10D9B23B9A36B43F48033A3639A
:101A0000D3E7A36B23F48033A363CEE7C36843F427
:101A10008013C360B6E70320C7E70320EAE700BFEF
:101A2000400D030002460020936843F001039360D9
:101A3000704700BF02460020936823F001039360C3
:101A4000704700BF08B5C368012923F0C043C360D5
:101A50000BD041B9C36843F08043C36032200AF021
:101A60007FFE002008BD012008BDC36843F000537D
:101A7000C360F3E7033292080CD010B400F5805431
:101A800001EB8200236841F8043B8842FAD15DF8FB
:101A9000044B7047084670474269806910407047A0
:101AA000406900F00100704784B030B50446002062
:101AB000C4F8000EA06B40F40010A063A06B20F4EB
:101AC0000020A063A06B83B007AD20F4802085E8E0
:101AD0000E00A063E36B0899DB055DD5099B032B22
:101AE000D4F8003464D023F00403C4F800344FF475
:101AF00084632361314B01E0013B02D022699506EA
:101B0000FAD4102323612D4B01E0013B02D022695E
:101B1000D006FAD461B10022154604F5A0634FF057
:101B2000FF3001328A429860DD6003F12003F8D172
:101B300000230193D4F840340193019B23F02E033A
:101B40000193019BDA0404D4019B43F48053C4F84D
:101B50004034C820019B0AF003FE4FF0FF330022FF
:101B6000A2616361E36BDB0519D48021144A154B34
:101B70006162A262C4F800310A9B1BB9A36943F0F9
:101B80001003A361A269104B00201343A36103B0AB
:101B9000BDE8304004B07047D4F80034A3E74FF4F8
:101BA00000710A4A0A4B6162A262C4F80031E3E79D
:101BB00043F00403C4F8003499E700BF400D03006C
:101BC00080006000E0004000080020A30002000147
:101BD0000003E000D0F8003423F00303C0F8003421
:101BE000D0F8002401F0030313430129C0F80034A6
:101BF00000F5806006D0022904BF41F27073436093
:101C0000002070474BF6803343600020704700BFD0
:101C100030B583B000250195D0F840340193019B85
:101C200023F02E030193019B43F480730446C0F814
:101C3000403464200AF094FD019B23F48073C4F8BF
:101C400040340A200AF08CFD284603B030BD00BFA6
:101C500082B000230193D0F840340193019B23F01C
:101C60002E030193019B13F4805F019B01D1012995
:101C70000AD0DB0405D521B9019B23F48053C0F8B9
:101C80004034002002B0704743F48053C0F8403421
:101C9000019B002002B0704782B000230193D0F86E
:101CA000403401930198C0F3414002B0704700BF37
:101CB00000F58060806880B2704700BF2DE9F04376
:101CC00000EB411505F5A0689DF820409DF81C60CB
:101CD000BDF824704FF0010E4FF0FF3C01F00F01F2
:101CE0000EFA01F1C8F808C04FFA82FE00F5806CC8
:101CF000032C71D8DFE804F0493B490240F29D69AA
:101D0000BEF1000FC8F80C9052DBDCF818E04EEA88
:101D10000101CCF81810D0F818C000214CF0007C5C
:101D2000C0F818C008469B05C7F30A07D20203F0A3
:101D3000FE533B4302F4F047A20402F440223B432B
:101D4000022E43EA020343EA00030CBF4FF40032C1
:101D500000221343032CC5F8003505D1D5F8003512
:101D600043F00053C5F800350846BDE8F08340F263
:101D70002529BEF1000FC8F80C90C6DAD8F80CE09F
:101D80004EF4C07EC8F80CE018E040F29D49BEF168
:101D9000000FC8F80C900BDBD0F83CE01EF4807FFD
:101DA000B3D0D8F80CE04EF0600EC8F80CE0ACE709
:101DB000D8F80CE04EF4807EC8F80CE0DCF818E0AF
:101DC00041EA0E01CCF81810816941F0007181617F
:101DD00000214FF40040A6E7DCF8188048EA010132
:101DE000CCF818108169BEF1000F41F000718161DB
:101DF000B4BF4FF400400020012194E72DE9F041E9
:101E0000C36B4F78DB0500EB471505F5A06C0DD5CE
:101E10000B795BB9002A00F08880012A06D1DCF832
:101E20000C4024F06004CCF80C404B710C69002C81
:101E30004DD14FF4002E4FF00108CE781EB10C8921
:101E400008FB04F40C618B7A5B0703F0C04343EAA0
:101E50000E03C4F3120E43EA0E03CCF8103012B195
:101E6000CB68CCF8143000F5806EDEF80830D5F879
:101E70000085DFF830C128F00058C5F80085DB4345
:101E8000D5F800855B0703F0005343EA0803C5F863
:101E90000035D5F80035CCF80030DCF8003023F000
:101EA0008043CCF80030DCF80030F6B143F4004356
:101EB000CCF80030DCF8003043F00043CCF80030C0
:101EC000DCF80030C5F800350020BDE8F0810E894F
:101ED000631E3344B3FBF6F31FFA83FEBEF5807F27
:101EE0001CD8F0464FEAC34EA7E723F40043CCF8D2
:101EF0000030DCF8003043F00043CCF80030DCF870
:101F00000030C5F80035002ADED1002CDCD0CB79BA
:101F1000032B26D8DFE803F03819381934020C6196
:101F20004FF0006E4FF4807887E74B79012B7FF4F8
:101F30007DAF1B4BCCF81030D5F8003523F0804333
:101F400043F00043C5F80035BEE7DEF81020E31C7F
:101F500092B2C3F38F039A4203D2836943F0806342
:101F60008361A3B203339B08CA68ADD000EB07308E
:101F700000F5805002EB830352F8041B016093428A
:101F8000FAD10020BDE8F081C26AE31C92B2C3F32B
:101F90008F039A42E5D2836943F020038361E0E72F
:101FA000000008807C04002000F58060406980B259
:101FB000704700BF00EB411110B4D1F8003513F4A5
:101FC000802FD1F8003543F0804301F5A064C1F8BB
:101FD000003522D0D0F8103413F47F0FD1F800353B
:101FE00021D123F00043C1F80035D1F8003543F08A
:101FF0000043C1F80035D1F8003523F40043C1F89F
:1020000000354FF47A7301E0013B10D02268002ABA
:10201000FADB00205DF8044B7047C36A13F47F0FAE
:10202000D1F8003507D043F00043C1F80035002057
:102030005DF8044B704723F00043C1F80035D1F838
:10204000003543F00043C1F80035D1F8003523F4E2
:102050000043C1F800354FF47A7301E0013BE6D04C
:102060002268002AFADB00205DF8044B704700BFAD
:1020700082685D4B4FF4846122F0010210B48260EB
:10208000016101E0013B02D002699106FAD41023FC
:102090000361554B01E0013B02D00269D206FAD43C
:1020A000D0F8003523F0802343F08043C0F800359A
:1020B000D0F8203523F0802343F08043C0F820354A
:1020C000D0F8403523F0802343F08043C0F84035FA
:1020D000D0F8603523F0802343F08043C0F86035AA
:1020E000D0F8803523F0802343F08043C0F880355A
:1020F000D0F8A03523F0802343F08043C0F8A0350A
:10210000D0F8C03523F0802343F08043C0F8C035B9
:10211000D0F8E03523F0802343F08043C0F8E03569
:10212000D0F8003623F0802343F08043C0F8003617
:10213000D0F8203623F0802343F08043C0F82036C7
:10214000D0F8403623F0802343F08043C0F8403677
:10215000D0F8603623F0802343F08043C0F8603627
:10216000D0F8803623F0802343F08043C0F88036D7
:10217000D0F8A03623F0802343F08043C0F8A03687
:10218000D0F8C03623F0802343F08043C0F8C03637
:10219000D0F8E03623F0802343F08043C0F8E036E7
:1021A00000F5A06100F5E06400230A6822F4004213
:1021B00042F040420A6002E00A68002A03DA013372
:1021C000B3F57A7FF8D92031A142EED14FF0FF3339
:1021D000C0F81434436183685DF8044B43F0010395
:1021E00083600020704700BF400D030050B338B536
:1021F00090F83930044603F0FF02F3B12268E56835
:10220000022384F839301068D4E9011320F44030F7
:1022100008431060516B21F0070119435163136C9F
:1022200023F47F5323F03F032B4300210125136444
:102230000846E16384F8395038BD80F8382005F04D
:102240009DFDDBE7012070472DE9F04FDFF864C208
:10225000DFF86482D1F800E083B0002303E00133AB
:10226000102B00F0A48001229A400EEA0205AA4237
:10227000F5D14E6826F0100ABAF1020F00F09A80EC
:102280004FEA43090324D0F800B004FA09F4E44308
:1022900006F0030704EA0B0B07FA09F70AF1FF3A05
:1022A00047EA0B07BAF1010F076040F2A980C7683F
:1022B0008A683C4002FA09F21443F200C460CED5A9
:1022C00000220192D8F8442042F48042C8F8442009
:1022D000D8F8442023F0030404F1804402F480423F
:1022E00004F59C34019203F00307019AD4F8089096
:1022F000BF000F22BA4029EA020A684A90422ED053
:1023000002F58062904200F09080654A904200F0B1
:102310009380644A904200F09680634A904200F0B5
:102320009980624A904200F0A380614A904200F096
:10233000A680DFF88891484500F09380DFF880910F
:10234000484500F0A380DFF87C9148450CBF4FF072
:1023500009094FF00A0909FA07F74AEA070AC4F817
:1023600008A0DCF80020EC43F70354BF22402A43C6
:10237000CCF80020DCF80420B70354BF22402A43E5
:10238000CCF80420DCF80820F70254BF22402A438E
:10239000CCF80820DCF80C20B60203F1010354BF8E
:1023A00022402A43102BCCF80C207FF45CAF03B002
:1023B000BDE8F08F4FEAD30900EB890903F0070766
:1023C000D9F82040BF004FF00F0B0BFA07FB24EAAF
:1023D0000B0A0C69BC4044EA0A04C9F820404FEAE1
:1023E00043090324D0F800A004FA09F4E44306F0FA
:1023F000030704EA0A0A07FA09F747EA0A07076027
:10240000876807EA040ACF6807FA09F747EA0A0764
:102410008760D0F804A0C6F300172AEA020A3A46F9
:102420009A4042EA0A02426041E74FF0010909FA84
:1024300007F74AEA070A92E74FF0020909FA07F795
:102440004AEA070A8BE74FF0030909FA07F74AEA55
:10245000070A84E74FF0040909FA07F74AEA070A6E
:102460007DE74FF0070909FA07F74AEA070A76E716
:102470004FF0050909FA07F74AEA070A6FE74FF034
:10248000060909FA07F74AEA070A68E74FF0080958
:1024900009FA07F74AEA070A61E700BF00000240AD
:1024A00000080240000C02400010024000140240EC
:1024B00000180240003C014000380240001C02406D
:1024C000002002400024024002B9090481617047E3
:1024D00070B52E4B2E4C1B684568A4FB034382B09D
:1024E0005B0D4FF47A7404FB03F3B5F5827F01931F
:1024F00007D10CE0019B0268013B019393681B0626
:1025000002D5019B002BF5D1002002B070BD15460D
:102510000C460646631C306803D183681906FCD458
:10252000F2E783681A06EFD500F0DAFC401B84421C
:10253000F0D8D6E900315A68B1F5827F22F0E00286
:102540005A6017D0B26AB2F5005F07D11A6822F458
:1025500000521A601A6842F400521A60012386F889
:102560005130736D002243F02003736586F85020CC
:102570000320CAE7B268B2F5004F02D0B2F5806F0F
:10258000E0D11A6822F040021A60DBE76C000020FC
:10259000819F5E16704700BF002840D0F8B590F8C4
:1025A0005130044603F0FF02002B33D0D4E901364A
:1025B000D4E9035033436269E169A66A2B430343BC
:1025C0001343206A2268A5690B43022184F8511045
:1025D00017680343290C606A334305F400752B43E5
:1025E000B6F5005F27F0400701F00401176041EAEB
:1025F0000001136008BFE36A516008BF1361D3692B
:10260000002123F400630125D3610846616584F845
:102610005150F8BD80F85020FFF7BCFFC6E70120FD
:10262000704700BF704700BF90B10268022310B529
:1026300080F85130136823F0400304461360FFF71D
:10264000F1FF0020606584F8500084F8510010BD4F
:10265000012070472DE9F04190F85040012C82B0E4
:1026600000F081801D46012380F8503004469046DA
:102670000F4600F035FC064694F85100C0B2012820
:1026800009D002200122002384F8512084F8503020
:1026900002B0BDE8F081002FF4D0B8F1000FF1D006
:1026A000A268276300230321B2F5004F84F851107C
:1026B000A4F834806365A363A4F83680A387C4E9D3
:1026C0001033E387206800F08680A36AB3F5005FCB
:1026D00078D00268520603D4026842F040020260D9
:1026E000E2686168B2F5006F41D0002900F0948083
:1026F000B8F1010F00F09080691C76D1E38E9BB297
:1027000093B123689A68920740F19080226B127807
:102710001A73E28E236B013A92B2E286E28E0133A3
:1027200092B22363002AECD1A36AB3F5005F04D10F
:102730002268136843F480531360324629462046CA
:10274000FFF7C6FE08B120236365A36833B922688A
:102750000193D368019393680193019B606D0030EE
:1027600018BF01208EE7022002B0BDE8F0810029E9
:102770007DD137F8022BC260E28E2763013A92B214
:10278000E2866A1C5CD1E28E92B2002ACDD08368C8
:102790009F070FD5226B32F8023BC360E38E2263A2
:1027A000013B9BB2E386E38E9BB2002BBCD08368D7
:1027B0009F07EFD400F094FBE38E9BB2002BB3D0C5
:1027C0002068E4E7026822F400520260026842F4E2
:1027D000005202607DE7036843F48043036074E7BE
:1027E00000F07EFB801BA84228D2E38E9BB2002B18
:1027F0009AD023689A689007F2D5226B12781A73E0
:10280000E38E226B013B9BB2E386E38E01329BB2E7
:102810002263002BEDD187E73B780373E38E226BB5
:10282000013B9BB20132E386226365E700F058FB6F
:1028300064E700F055FB801BA84201D3032021E789
:10284000E38E9BB2002B3FF46FAF23689A68910729
:10285000EFD5226B32F8021BD960E38E2263013B75
:102860009BB2E386E38E9BB2002BEED15CE7B8F11E
:10287000010F86D17DE700BF90F85100704700BF7F
:102880002DE9F04FD20104684868D4F80C80D1F8E3
:1028900000C0D1F818900F698432A3180CF1010A16
:1028A0005D6805F470455D60E568C8F30B48C5F3E5
:1028B0000B458044554445EA0845D1E9026E5D6008
:1028C000E568D3F808A0D1F814800AF4704AC3F878
:1028D00008A0D4F80CB0C5F30A0A0136CBF30A05F8
:1028E000D6442E4446EA0E469E601D6925F0070533
:1028F0001D614FF0000E1F619D6991F8326091F8E3
:1029000031A0C3F818E091F8305045EA096545EA6E
:102910000A2545EA06459D615D6925F0FF055D6173
:10292000C3F81480DD6925F4E06525F00705DD6155
:1029300001F11C0595E860013543DD619D6AC3F82E
:1029400028E0C3F828805FB1012F28D0BD1E022DDA
:1029500028D9072F0CBF4FF0020E4FF0010E01E0F7
:102960004FF0040E8E6ADD6ACF6AA0EB0C000EFBFE
:1029700000F0033006FB0EF640EA064005F0E025C5
:10298000DD62D862196B21F4FF6121F00701196340
:102990001F63A35843F00103A350BDE8F08F4FF02D
:1029A000030EDFE74FF0020EDCE700BF002868D01F
:1029B000F8B590F8A130044603F0FF02002B5BD07D
:1029C0002368022284F8A1209969D4E90120D4E97E
:1029D000036521F070419961024399692A483243A5
:1029E0002A430A439A619D68E6690540D4E9057265
:1029F0009D60996841EA074111439960DD6805408F
:102A0000D4E90817DD60DA6842EA06420A43DA6070
:102A10001D690540D4E90A261D61196941EA07418B
:102A2000114319615969084058615A69216B42EA9A
:102A300006420A435A61D96A94F8355094F8360030
:102A400001F07F41D962D96A94F834200A4342EAFE
:102A5000052242EA0042DA625A6B42F006025A63E9
:102A60009A69002142F0010201259A610846C4F8E2
:102A7000A41084F8A150F8BD80F8A02005F090F9CA
:102A80009EE70120704700BF00F800F010B5044633
:102A900005F02AFA0020C4F8A40084F8A00084F805
:102AA000A10010BD704700BF704700BF036870B53C
:102AB0009C6B5E6B6207054601D571071DD4A207AA
:102AC00001D5B3072DD4E00701D5F1073FD4220784
:102AD00001D5330700D470BD2B685A6B082022F053
:102AE0000802012400215A63D863284685F8A140D2
:102AF00085F8A010FFF7D8FF70BD5A6B042122F0B3
:102B000004025A63D963D0F8A430002243F00103D1
:102B1000C0F8A43080F8A02080F8A110FFF7C2FF11
:102B2000CDE72B685A6B022122F002025A63D96367
:102B3000D5F8A43004220B430021C5F8A43085F851
:102B4000A01085F8A1202846FFF7ACFFBBE72B6853
:102B50005A6B22F001025A6301210022D9632846F0
:102B600085F8A11085F8A02005F0CAF9AFE700BFED
:102B700090F8A030012B29D02DE9F0410D460646F2
:102B800094460F460FCD342404FB0C644FF001082B
:102B90004FF0020E383486F8A08086F8A1E00FC40A
:102BA0000FCD0FC40FCD0FC42B6823606246304693
:102BB0003946FFF765FE32680023C2F824801846C4
:102BC00086F8A18086F8A030BDE8F0810220704729
:102BD000034690F8A000012818D070B41E680220A7
:102BE00006EBC21283F8A100D2F890000125002460
:102BF00000F07F40C2F89000C2F890102046756245
:102C000083F8A15083F8A04070BC70470220704741
:102C100070B490F8A040012C34D00125022480F833
:102C2000A05080F8A140AAB1342404FB0304066834
:102C3000A46CDB018433062C1E4414D00439002418
:102C400051F8043F23F07F4343EA04630134944284
:102C50003364F5D10023012280F8A12080F8A03050
:102C600070BC1846704700240439254651F8043FCB
:102C7000013523F07F432343AA42336404F188548F
:102C8000F4D1E7E7022070BC704700BF90F8A020A5
:102C9000012A15D00346C90130B41A6884310220D4
:102CA00083F8A10050580125002440F00200505044
:102CB0005562204683F8A15083F8A04030BC70478D
:102CC0000220704790F8A020012A15D00346C901C0
:102CD00030B41A688431022083F8A10050580125CD
:102CE000002420F0020050505562204683F8A15085
:102CF00083F8A04030BC70470220704790F8A020B5
:102D0000012A15D00346C90130B41A688431022063
:102D100083F8A10050580125002440F010005050C5
:102D20005562204683F8A15083F8A04030BC70471C
:102D3000022070472DE9F04790F8A050012D28D0CF
:102D4000342606FB03F685198C461746D5E918216B
:102D5000044602EB0C094FF0010801EB070E383670
:102D60004FF0020A80F8A08080F8A1A01A468119CD
:102D7000C5E90EC9C5E9107EFFF782FD2268002370
:102D8000C2F82480184684F8A18084F8A030BDE8F9
:102D9000F0870220BDE8F087F8B590F8A050012D2B
:102DA0001AD0342303FB02F3C718044601260D464C
:102DB00038334FF0020CC11880F8A06080F8A1C031
:102DC000FD64FFF75DFD226800235662184684F813
:102DD000A16084F8A030F8BD0220F8BDF8B590F8E5
:102DE000A050012D1AD0342303FB02F3C718044668
:102DF00001260D4638334FF0020CC11880F8A06050
:102E000080F8A1C0FD65FFF73BFD226800235662F4
:102E1000184684F8A16084F8A030F8BD0220F8BDFF
:102E200090F8A020012A17D0034602201A6830B477
:102E300083F8A100506B094C20F00100506321641D
:102E4000516B0125002429435163204683F8A1508A
:102E500083F8A04030BC70470220704700680140F2
:102E6000704700BF38B50E4A0E4B12781B680546F6
:102E70004FF47A70B0FBF2F0B3FBF0F0FEF74EFDCA
:102E800008B90F2D01D9012038BD04460246294654
:102E90004FF0FF30FEF7FEFC034B20461D6038BDAF
:102EA000700000206C0000207400002008B50B4B5F
:102EB0001A6842F400721A601A6842F480621A605A
:102EC0001A6842F480721A600320FEF7D1FC0F20CA
:102ED000FFF7C8FFFFF7C4FF002008BD003C024019
:102EE000014B1868704700BFAC9F0020F0B5044646
:102EF0000068850783B00FD110F00C0F62D18506F2
:102F000000F1B28010F0100004D0804B94F82C2017
:102F10001A60002003B0F0BD7D4B7E4D00221A6088
:102F2000FFF7DEFF064604E0FFF7DAFF801B02280A
:102F300045D82B681901F7D42368DA0706D5D4E9F8
:102F40000112120742EA8112C5F884209B0715D5A9
:102F5000704AE368D2F8841060681B0601F0E04113
:102F600043EA80130B43C2F88430D2F88C10E36933
:102F700021F01F01013B0B43C2F88C30644B654DBF
:102F800001221A60FFF7ACFF064604E0FFF7A8FF36
:102F9000801B022813D82B681F01F7D52068ABE7E8
:102FA0000D46FFF79DFF41F2883607462B6F9B07C2
:102FB00000F18E80FFF794FFC01BB042F6D90320CA
:102FC00003B0F0BD544B534D00221A60FFF788FF49
:102FD000064604E0FFF784FF801B0228EFD82B6829
:102FE0009800F7D42268510715D5D4E90403D5F821
:102FF00088101B0601F0E04143EA80130B43C5F83B
:103000008830D5F88C30216A23F4F853013943EA2B
:103010000123C5F88C30130714D53E4AA369D2F8B2
:10302000881020691B0701F0706143EA80130B438D
:10303000C2F88830D2F88C30616A23F440330B43F5
:10304000C2F88C30344B334D01221A60FFF748FF31
:10305000064604E0FFF744FF801B0228AFD82B6828
:103060009F00F7D520684AE72A4B2C4D0022019299
:103070001A6C42F080521A641B6C03F08053019367
:10308000019B2B6843F480732B60FFF729FF0646F2
:1030900004E0FFF725FF801B022890D82B68D90594
:1030A000F7D51C49A36A0A6F12F4407203F440700A
:1030B00011D082420FD00B6F194A23F440730125BF
:1030C0000020156010600B670B6FDA073FF568AFE3
:1030D000A36A03F44070B0F5407F0CD00D498A68B4
:1030E00022F4F8128A600B4A116FC3F30B030B43EF
:1030F0001367206806E70748826823F0704122F4CE
:10310000F81221F440710A438260ECE7E011474273
:10311000680047420038024070004742007000409B
:10312000400E47422DE9F041D1F800804F6AB8F1D6
:10313000010FD1E90723D1E9014ED1E903C6D1E955
:10314000055113D01A433A43224342EA0E0343EA9D
:103150000C03026833432B4322F4FF420B4322F05B
:103160007F02134303600020BDE8F08144EA0E04AF
:1031700044EA0C04D0F800C0D0F804E034432C43F7
:103180001A432EF4FF453A4344EA01032CF4F8476E
:1031900025F07F0517432B43076043600020BDE8FF
:1031A000F08100BF2DE9F041D1E901474B69D1F829
:1031B0000C800E698D69D1F800C008F1FF38611EDE
:1031C00003F1FF3E013F013E013D012A4FEA083471
:1031D0004FEA0E534FEA01114FEA07274FEA06461E
:1031E0004FEA05650CF1FF3C0FD0234343EA0C0383
:1031F0001943826841EA070333432B4302F07042CC
:10320000134383600020BDE8F08141EA0702816832
:10321000C76842EA0C02324321F470012A43234377
:1032200021F4704107F070440B4322438360C26075
:103230000020BDE8F08100BF70B5D1E9003504463B
:10324000D1E902102B4382B043EA4023013943EA1B
:103250004113002101910193019B23611546FFF762
:103260003FFE6B1C05D1A06910F02000FBD102B01D
:1032700070BD0646A06910F02000F8D04DB1FFF7F0
:103280002FFE801BA84204D8A06910F02000F6D1C0
:10329000EDE70320EBE700BF02460020536943EA55
:1032A00041015161704700BF2DE9F04790F8B842E5
:1032B00084B0012C9DF830709DF834C0BDF838E022
:1032C00028D0054601EB810400EBC4044FF001084F
:1032D00085F8B88202F07F00D6094FF0000884F824
:1032E000383084F8391084F83FC084F83C7084F892
:1032F0003A0084F83B6084F83D80A4F840E02868F8
:103300000097CDE901CEFEF7D9FC85F8B88204B06C
:10331000BDE8F087022004B0BDE8F08790F8B8322D
:10332000012B0BD010B50123044680F8B832006899
:10333000FEF740FE002084F8B80210BD022070475E
:1033400000284AD02DE9F04190F8B93204688AB0DB
:10335000074603F0FF02002B39D02046032387F8ED
:10336000B932E36B3C4613F4807308BF3B61FEF750
:1033700061FB54F8106B0FCC6D460FC50FCC0FC519
:1033800094E8030085E8030007F1040898E80E00BC
:1033900030463E46FEF7DCFA01213868FEF752FB64
:1033A00056F810CB0FCE6D460FC50FCE0FC594E863
:1033B000030085E80300604698E80E00FEF774FB02
:1033C0000123002087F8B9320AB0BDE8F08180F807
:1033D000B82209F021FB3868C0E70120704700BF20
:1033E000F0B48C009DF81070059E651800EBC505C3
:1033F000002F14BF4FF0020C4FF0030C85F83B2058
:1034000085F83F3085F842C0BDF81850032B12D81C
:10341000DFE803F002322727012F0CD15AB96318D5
:1034200000EBC303A5BB83F85170631800EBC30323
:10343000022283F84220631800EBC303282283F89A
:103440003910002402FB0101C3E91165027C006808
:1034500083F85C40DC6483F85D403831F0BCFEF7F3
:10346000CDBC631800EBC3036AB993F851703FB148
:10347000022283F84220DEE7631800EBC303002238
:1034800083F84220D7E793F85020002AF0D1F7E7DD
:1034900093F85170002FF3D0C7E700BF704700BF0B
:1034A000704700BF2DE9F04F056885B004462846F7
:1034B000FEF7F6FA012802D005B0BDE8F08F2068CB
:1034C000FEF7EAFA0028F7D02068FEF7E5FA10F4D4
:1034D000001F20681CBF4FF400134361FEF7DCFAA5
:1034E00010F4801F20681CBF4FF480134361FEF767
:1034F000D3FA10F0806F20681CBF4FF080634361E7
:10350000FEF7CAFA10F0020F20681CBF02234361C5
:10351000FEF7C2FA870000F1F6802068FEF7BCFAD9
:10352000C60100F1B2802068FEF7B6FA010700F18B
:10353000FC802068FEF7B0FA10F0007F206813D1FD
:10354000FEF7AAFAC306B7D52568AB6923F01003C6
:10355000AB612E6AC6F34342022A00F0A781AB6931
:1035600043F01003AB61A7E7FEF71EFDA16880469C
:103570002068002900F0858005F5A06500264FF041
:10358000020938E05B0754D50423BB60FB6843F0B5
:103590000203FB60BB689B0500F1FB80BB68D8079A
:1035A00040F1CA802369002B40F066814FEA8A030C
:1035B00003EB0A0104EBC10100204FF0010C886508
:1035C00081F85DC0C7F808C091F83F0010F0FD0F0A
:1035D00000F04581032800F04A82534404EBC30302
:1035E00093F8502082F0010283F85020A1682068EF
:1035F00001368E4245D206F00F0328FA03F3DA07AC
:10360000F6D573015FFA86FA5B594FEA4A1B00F55B
:10361000A06202EB0B0713F4004FBB68B2D113F0AA
:1036200004030DD00423BB60FB6843F00203FB607E
:10363000DEE7BB68990640F1BA802023BB60A9E7AA
:10364000D7F808C01CF0200C00F0CF800AEB8A02EB
:103650004FF0200C04EBC202C7F808C092F83DC03E
:10366000BCF1010FC4D182F83D30FB6882F85C9058
:1036700043F002035146FB60FEF79CFCA168206802
:10368000B6E74FF0007343615AE72668D6F8403436
:103690000293D6F840340393039B23F02E03039345
:1036A000029B980707D5029BD90700F14A81039B2B
:1036B00043F002030393029B1A0718D5039B43F0C0
:1036C00008030393029B5B0740F15C81A169022917
:1036D00000F06981E368012B04BF4EF66022C6F852
:1036E00004242046FFF7DAFE204609F0FFF920689F
:1036F000029B9F0603D5039B43F020030393039B88
:10370000C6F8403410E7D5F8403423F02E03C5F84E
:103710004034204609F0EEF901212068FEF75AFAFC
:1037200020684FF000534361F8E6204609F0DAF9CB
:10373000206808234361FDE6BB68990740F1AA8031
:103740004FEA8A0303EB0A0104EBC101D7F80CC06E
:1037500091F85D002CF0020C0128C7F80CC000F0B5
:10376000D580052800F0D280062800F05481082872
:1037700000F05181032800F0D98191F85C00C7F86E
:10378000089002465146204609F0B8F9A168206821
:103790002EE7FB68206843F002035146FB60FEF70A
:1037A00009FC4FF40073BB60A168206820E7BB6888
:1037B0001B0700F1AE80BB6859057FF5EBAEFB68D7
:1037C000019243F00203FB605146FEF7F3FB0AEB64
:1037D0008A03102104EBC303B96008204FF4806111
:1037E00083F85D00019AB960D4E6BB685B0600F11E
:1037F000B080BB6813F4007340F0D380D7F808C0E2
:103800001CF0010F40F01F81BB6813F0080340F06B
:103810006981D7F808C01CF0100F00F038810AEB5E
:103820008A0204EBC2020321936592F83D3082F8CC
:103830005D1043B9282303FB0A4393F83C2012B9D7
:10384000012283F83D20FB6843F002035146FB60F0
:10385000FEF7B0FB1023BB60A1682068C8E6FA68D9
:103860002068019342F00202FA605146FEF7A2FB83
:103870001022BA60019BB0E64FEA8A0303EB0A010B
:10388000386904EBC101C0F3120C886CA0EB0C008A
:10389000C8648DE6BB68206813F0800340F0A38005
:1038A000BA68D20600F18A80A168A1E6C6F30A18B8
:1038B000B8F1000F3FF453AE06F00F0606EB860793
:1038C00004EBC707796C00293FF449AE424628460D
:1038D000FEF7D0F805F5A0657301E918786C0E695C
:1038E000BE4AF96C4044414432407864F9645AB1AC
:1038F000EA5822F0804242F00042EA5097F85030F5
:1039000083F0010387F85030256828E681F85C00D1
:1039100035E7FB6801920AEB8A0104EBC10143F031
:103920000203FB604FF0050C4FF0100E082381F8E6
:103930005DC0C7F808E05146BB60FEF73BFB019A4B
:1039400028E6B36923F00053B361204609F0CEF8AE
:10395000ADE60AEB8A0304EBC303012283F83D20A2
:10396000FA68C3F858C042F002024FF0040C83F822
:103970005DC05146FA60FEF71DFB4023BB60A168A5
:10398000206835E62046FFF78BFDD6F840342068E6
:1039900023F02E03C6F84034836943F0005383615B
:1039A000A6E6FB68F7E6029B206803F4C023B3F5A4
:1039B000802F18BF0121FEF70DF992E60AEB8A016C
:1039C00004EBC10191F83F20032A00F0A28012F01D
:1039D000FD0204D123698A65002B00F0B680102314
:1039E000A168BB6004E60AEB8A0304EBC303F96831
:1039F0009A6D41F0020C01324FF0060EC7F80CC070
:103A000051469A6583F85DE0FEF7D4FA8023BB60E7
:103A1000A1682068ECE503EB0A0104EBC101886DA5
:103A20000130032871D88865022052F80B105344E6
:103A300004EBC30321F0804141F0004183F85C00B6
:103A400042F80B109BE6FA680AEB8A0B04EBCB0BEF
:103A500042F00202CBF858305146FA60FEF7AAFA5B
:103A60000123BB60A16820688BF85D30C0E552F887
:103A70000B00019340F0005042F80B0081F85CC04D
:103A800062465146204609F039F8019BA5E5BB681E
:103A90001B066AD4BB685B0579D4BB689B077FF5BE
:103AA000A7AD282303FB0A43F86893F85D1020F0C4
:103AB00002000129F86000F0828003297CD00429EB
:103AC0007AD0052900F0A380062900F08980082912
:103AD00000F08680282303FB0A43C7F8089093F878
:103AE0005C204FE60823BB60FB6843F002035146AD
:103AF000FB600AEB8A0AFEF75DFA04EBCA030522B3
:103B000083F85D20A168206872E5002088650420A4
:103B10008BE7FA68282101FB0A4142F002028B651B
:103B20005146FA60FEF746FA206858E752F80B3023
:103B3000282123F0804301FB0A4143F0004381F830
:103B40005C90022042F80B3019E6FB68282202FB49
:103B50000A424FF0030C43F0020382F85DC0514665
:103B6000FB60FEF727FA206839E7FB6843F00203A1
:103B70005146FB60FEF71EFA282303FB0A4A062281
:103B800080238AF85D20A1682068BB6030E5FB686F
:103B900043F002035146FB60FEF70CFA282303FBB7
:103BA0000A4A10214FF480620823B9602068BA6085
:103BB000A1688AF85D301BE583F85C908AE793F88A
:103BC0003F2083F85C10023A012A83D893F85120F1
:103BD00082F0010283F851207CE700BF0000F81F4B
:103BE000282303FB0A43996D0131032912D89965F3
:103BF000022052F80B30282123F0804301FB0A41B8
:103C000043F0004381F85C0042F80B3062E783F830
:103C10005C105FE7002199650420EAE738B590F869
:103C2000B832012B0ED00446012580F8B852006846
:103C3000FDF7F8FE29462068FEF70AF8002084F810
:103C4000B80238BD022038BD90F8B832012B0BD035
:103C500010B50123044680F8B8320068FEF708FA70
:103C6000002084F8B80210BD022070470068FDF7FC
:103C7000CFBF00BF01EB810100EBC10191F85C00F7
:103C8000704700BF01EB810100EBC101C86C7047B8
:103C90000068FEF70DB800BF0068FDF7FDBF00BF6C
:103CA00008B500F0B5FBCA2000F04AFCC32000F0C4
:103CB00013FC082000F010FC502000F00DFCCF2079
:103CC00000F03EFC002000F007FCC12000F004FCE6
:103CD000302000F001FCED2000F032FC642000F008
:103CE000FBFB032000F0F8FB122000F0F5FB812025
:103CF00000F0F2FBE82000F023FC852000F0ECFB54
:103D0000002000F0E9FB782000F0E6FBCB2000F07B
:103D100017FC392000F0E0FB2C2000F0DDFB002038
:103D200000F0DAFB342000F0D7FB022000F0D4FBD7
:103D3000F72000F005FC202000F0CEFBEA2000F088
:103D4000FFFB002000F0C8FB002000F0C5FBB12005
:103D500000F0F6FB002000F0BFFB1B2000F0BCFBD6
:103D6000B62000F0EDFB0A2000F0B6FBA22000F028
:103D7000B3FBC02000F0E4FB102000F0ADFBC1203D
:103D800000F0DEFB102000F0A7FBC52000F0D8FB00
:103D9000452000F0A1FB152000F09EFBC72000F09D
:103DA000CFFB902000F098FB362000F0C9FBC82024
:103DB00000F092FBF22000F0C3FB002000F08CFB2F
:103DC000B02000F0BDFBC22000F086FBB62000F062
:103DD000B7FB0A2000F080FBA72000F07DFB272026
:103DE00000F07AFB042000F077FB2A2000F0A8FB0B
:103DF000002000F071FB002000F06EFB002000F0BE
:103E00006BFBEF2000F068FB2B2000F099FB0020FB
:103E100000F062FB002000F05FFB012000F05CFB83
:103E20003F2000F059FBF62000F08AFB012000F053
:103E300053FB002000F050FB062000F04DFB2C202F
:103E400000F07EFBC82000F0AFFB262000F078FBDE
:103E5000012000F041FBE02000F072FB0F2000F099
:103E60003BFB292000F038FB242000F035FB0C2020
:103E700000F032FB0E2000F02FFB092000F02CFB9D
:103E80004E2000F029FB782000F026FB3C2000F0BB
:103E900023FB092000F020FB132000F01DFB052070
:103EA00000F01AFB172000F017FB112000F014FBA4
:103EB000002000F011FBE12000F042FB002000F0A8
:103EC0000BFB162000F008FB1B2000F005FB042074
:103ED00000F002FB112000F0FFFA072000F0FCFACE
:103EE000312000F0F9FA332000F0F6FA422000F019
:103EF000F3FA052000F0F0FA0C2000F0EDFA0A20A9
:103F000000F0EAFA282000F0E7FA2F2000F0E4FAA7
:103F10000F2000F0E1FA112000F012FBC82000F0A1
:103F200043FB292000F00CFB2C20BDE8084000F0EA
:103F300007BB00BFC0B21F220B2100F06DBB00BF4A
:103F400010B5C4B220460222032100F065FB0A200E
:103F500000F0D4FB20460022032100F05DFB02208C
:103F6000BDE8104000F0CABB38B5C4B200F01EFB7B
:103F70002046002100F074FB01210546204600F098
:103F80006FFB40EA052080B238BD00BF10B5C4B257
:103F90002046402100F064FB03060BD4204601229A
:103FA0004B2100F039FB204600224B2100F034FB6E
:103FB000002010BD20464C2100F052FB003018BFFD
:103FC000012010BD08B50B21C0B200F049FB00F084
:103FD0001F0008BD70B5042382B0C4B20E4615465A
:103FE00020460DEB0302D72100F064FB019B1BBAB6
:103FF0001A0DC3F30B23328020462B8001224B2164
:1040000000F00AFB204600224B2100F005FB02B025
:1040100070BD00BF38B5C4B22046042100F020FBBB
:10402000042100F0FB020546204600F0F5FA204688
:10403000172100F015FB172100F00F02204600F0B9
:10404000EBFA05F0F8022046042100F0E5FA2046DC
:104050004922202100F0E0FA022000F04FFB204628
:104060000122212100F0D8FA20469A22412100F0B5
:10407000D3FA204601224A2100F0CEFA204601223E
:104080004B2100F0C9FA204600224B2100F0C4FA6F
:1040900020460122562100F0BFFA20460122582175
:1040A00000F0BAFA20460122402100F0B5FA20467D
:1040B000FF220B2100F0B0FA0220BDE8384000F0EA
:1040C0001DBB00BF10B5C4B22046092100F0C8FADC
:1040D000092100F0FE02204600F09EFA20460A2147
:1040E00000F0BEFA0A2100F0E0022046BDE81040D0
:1040F00000F092BA10B5C4B200F064FA20460A216A
:1041000000F0AEFA40F01F02D2B220460A2100F0C1
:1041100083FA2046092100F0A3FA40F00102D2B24E
:1041200020460921BDE8104000F076BA104A137805
:10413000984204D05178884201D013B101B1704740
:10414000012310B5C4B2D45400F030FA2046022244
:10415000032100F061FA0A2000F0D0FA2046002284
:10416000032100F059FA0220BDE8104000F0C6BA61
:104170008004002070B51F4C1F4B204A236088B07C
:1041800000230193516CA36041F480115164516C80
:10419000636101F48011019101990293116B236114
:1041A00041F020011163126B1548A36202F0200256
:1041B000182507210292E561E1624FF400724FF485
:1041C00082754FF46071A26165600222E360C4E908
:1041D00008330391052303A90125CDE90422CDE984
:1041E0000653029EFEF730F82046FEF7D5F908B0D8
:1041F00070BD00BF84040020005001400038024020
:104200000014024070B588B02F4C304E304B3360F4
:1042100000250095236B2F4A726043F0040323634B
:10422000236BB56003F004030093009B0195236B9F
:10423000F56043F001032363236B756103F0010311
:1042400001934FF480404FF48072122303A9306130
:10425000039201980493022204231F4806920793B5
:10426000C6E9065535620595FDF7EEFF03A94FF443
:1042700000731A480393FDF7E7FF0295236C43F49C
:1042800000032364236C03F400030293029B236A5C
:1042900043F400032362236A23F4000323622A46C3
:1042A0000F214820FDF7F6FA4820FDF729FB2A46A2
:1042B0000F214920FDF7EEFA4920FDF721FB30469A
:1042C000FCF7A0FE08B070BD00380240B09F00208F
:1042D000005C0040A086010000000240000802408F
:1042E00070B5044688B008BB184B01901A6B42F0B9
:1042F00040021A631B6B03F040030193019B144BB4
:10430000144D33F8146055F824000396012302225B
:1043100003A9CDE904330692FDF796FF314655F81F
:1043200024000022FEF7D0F808B070BD0128E6D1C5
:10433000064B002202921A6B42F040021A631B6B7A
:1043400003F040030293029BD9E700BF003802400C
:10435000B4950108A4000020044A054B32F810105F
:1043600053F820000122FEF7AFB800BFB495010852
:10437000A4000020044A054B32F8101053F8200026
:104380000022FEF7A1B800BFB4950108A4000020E8
:1043900030B589B050B91B4B01901A6B42F0010245
:1043A0001A631B6B03F001030193019BC9B101293F
:1043B00001D009B030BD144B53F82000134B00243A
:1043C000012202A9CDE902230494FDF73DFF224614
:1043D0000F210620FDF75EFA0620FDF791FA09B0DD
:1043E00030BD094B022253F820000124022300258E
:1043F00002A9CDE90245CDE90423FDF725FF09B067
:1044000030BD00BF00380240A000002000001110A5
:10441000F0B52C4B1C7889B00CB109B0F0BD2A4D19
:10442000009401261E702B6B284843F008032B6371
:104430002B6B049603F00803009302274FF40053FC
:1044400003A9009A039305940697FDF7FDFE0194D6
:104450002B6B1E4843F008032B632B6B049603F071
:104460000803019303A94FF48053019A0393CDE904
:104470000547FDF7E9FE02942B6B154843F0040352
:104480002B632B6B049603F00403042503A902930A
:10449000029B0395CDE90547FDF7D6FE2246294646
:1044A0000B48FEF711F80A4832462946FEF70CF889
:1044B0000848FEF7E1F90028AFD1FFF75BFE09B02D
:1044C000F0BD00BF8204002000380240000C024012
:1044D000000802408404002010B5012282B0044686
:1044E0004FF400511248FDF7EFFF0022042111485C
:1044F000FDF7EAFF104B11481B68ADF8064001229A
:104500000DF10601FEF7A6F830B901220421094891
:10451000FDF7DAFF02B010BD0848FEF785F807483E
:10452000FEF7AAF90028F0D1FFF724FEEDE700BF5F
:10453000000C024000080240B0000020840400206B
:1045400010B5002282B004464FF400511248FDF726
:10455000BBFF002204211148FDF7B6FF104B1148A4
:104560001B68ADF8064001220DF10601FEF772F856
:1045700030B9012204210948FDF7A6FF02B010BDA1
:104580000848FEF751F80748FEF776F90028F0D101
:10459000FFF7F0FDEDE700BF000C0240000802400D
:1045A000B00000208404002008F0DAB808B5044800
:1045B000FDF77CF800B108BDBDE80840FFF722BE5A
:1045C000B09F002070B586B00024104B00941A6B89
:1045D0000F4D104842F001021A631B6B049403F064
:1045E000010300934FF40042012301A9CDE90253D6
:1045F0000192009EFDF728FE22460F212820FDF79C
:1046000049F92820FDF77CF906B070BD003802405A
:10461000000021100000024010B50F4B86B01B684F
:1046200002930DF1170401238DF8172001930A4618
:10463000009401460948FCF7BBFD08B906B010BD5F
:104640000648FCF79BFD0548FDF730F80028F5D13A
:10465000FFF7D8FD06B010BDAC000020B09F0020D1
:1046600010B5124A86B0126802920DF117040123A8
:104670000A4600940146002401930D488DF8174026
:10468000FCF78EFE18B99DF8170006B010BD08485B
:10469000FCF774FD0648FDF709F80028F3D1FFF791
:1046A000B1FD9DF8170006B010BD00BFAC000020A2
:1046B000B09F002010B584B00E4C00922468029484
:1046C00001930A46012301460B48FCF769FE08B92D
:1046D00004B010BD0848FCF751FD0748FCF7E6FFA1
:1046E00010B1012004B010BDFFF78CFD012004B013
:1046F00010BD00BFAC000020B09F002008F030B813
:104700002DE9F041244C254D82B00126002321469D
:10471000804608274FF6FF722846E3600193266023
:10472000C4E90176FBF782FF304608F019F802224F
:104730000823C4E9002300230122C4E902232146FF
:1047400028464FF6FF72FBF771FF03220823C4E9E6
:10475000002300230422C4E90223214628464FF601
:10476000FF72FBF763FF4FF40C7301934FF0040CDF
:10477000019B6760214628464FF6FF72A660C4F889
:1047800000C0E360FBF752FF4146284602B0BDE897
:10479000F041FBF765BF00BFE0040020F0040020FB
:1047A000002800F0B08070B58EB0574B574C0025F4
:1047B00001959A6B42F001029A639A6B02F0010232
:1047C0000192019A02951A6B42F480021A631A6BE5
:1047D00002F480020292029A03951A6B42F00202DE
:1047E0001A631A6B02F002020392039A04951A6B81
:1047F00042F004021A631A6B02F004020492049A53
:1048000005951A6B42F008021A631A6B02F008024F
:104810000592059A06951A6B42F010021A631A6BFC
:1048200002F010020692069A07951A6B42F02002D7
:104830001A631A6B02F020020792079A08951A6B06
:1048400042F040021A631B6B0B9503F04003089380
:1048500002230A930C930C23064609A90D932C48B6
:10486000089A60230993FDF7EFFC09A90123294861
:104870000993FDF7E9FC09A94CF203732648099353
:10488000FDF7E2FC09A94FF6837324480993FDF76D
:10489000DBFC09A94FF63F0321480993FDF7D4FC3F
:1048A00009A948F233131F480993FDF7CDFC802076
:1048B000A0604FF400714FF480624FF480534FF4C6
:1048C00080402563E16034634FF40031226163610D
:1048D0000322154BA061204623602162A26265601D
:1048E000E5616562E562A663FCF782FF2046FCF79E
:1048F000E1FE2A460F213820FCF7CCFF3820FCF7D8
:10490000FFFF0EB070BD7047003802404405002024
:104910000004024000080240000C02400010024067
:10492000001402400018024010640240F8B51D4C0B
:104930001D4D1E4B2360102626614FF40056A662C3
:1049400001210422022607270023C5E900676160D0
:10495000E26040204FF4C0714FF400620426072744
:10496000C5E902676061A1612046194622620226FC
:1049700002220227A360E3616362AA61C5E90467BA
:10498000FFF70EFF29462046FBF72EFE084C031CBE
:1049900018BF012340F26A502370FFF7B1FE207860
:1049A000F8BD00BFF004002028050020400100A051
:1049B000B400002038B50C4B0C4C0D4A18806368CD
:1049C00011808220984740F61103984201D00120BF
:1049D00038BD084D23682C60822098472B688220C0
:1049E000DB689847002038BDA8050020780000202B
:1049F000AA050020A4050020F0B53B4D2B68044615
:104A000083B01B698220984780B22080002850D054
:104A10002B680DF106025B6901A982209847BDF859
:104A20000620A2F5B47292B20A2A44D92F49304B1B
:104A3000A1FB02121B88D208934238BF03F1FF3258
:104A4000BDF8043040F6B83138BF92B28B42104600
:104A500039D8284DC3F571630E332E689BB2264FAB
:104A60002649A7FB03730988DB0899423CBF01F183
:104A7000FF339BB2B1B2B3421F468C462FD95B1AAB
:104A80009BB2DFF87CE0DEF8006086421FFA86FC0D
:104A900034BFA2EB0C06ACEB0206B6B23344052BD6
:104AA00004DD2F60CEF80000B9B294466180A4F80E
:104AB00004C003B0F0BDBDF8043040F6B8310020AA
:104AC0008B420246C5D9C3F56D630833094D9BB2CD
:104AD0000E2B2E68C3D800231FFA86FC1F466146A2
:104AE000CB1A9BB2CDE700BFA4050020A38B2EBA42
:104AF000AA050020AC05002089888888A805002028
:104B0000B005002000F062BE08B5002808BF0120F3
:104B100000F0E0FC002008BD012001F02BBA00BF2E
:104B200010B582B00024019400B3EFF3058333B9CC
:104B300001F038FC012816D1002002B010BD01AAF6
:104B4000214601F0C7FD01280DD1019B002BF3D0B8
:104B5000084B4FF080521A60BFF34F8FBFF36F8F37
:104B6000204602B010BDFF2002B010BD802002B070
:104B700010BD00BF04ED00E010B582B00024019428
:104B8000EFF305838BB101A901F02AFA012812D1B4
:104B9000019B9BB10B4B4FF080521A60BFF34F8FBC
:104BA000BFF36F8F204602B010BD1A46194601F0C0
:104BB00055F8012802D0FF2002B010BD002002B03D
:104BC00010BD00BF04ED00E00129084601D001F04E
:104BD00001B810B50322002100F0B4FF044620B153
:104BE00000231A46194601F039F8204610BD00BFCF
:104BF00010B582B00024019400B3EFF3058333B9FC
:104C000001F0D0FB012816D1002002B010BD01AA8E
:104C1000214601F05FFD01280DD1019B002BF3D04F
:104C2000084B4FF080521A60BFF34F8FBFF36F8F66
:104C3000204602B010BDFF2002B010BD802002B09F
:104C400010BD00BF04ED00E010B582B00024019457
:104C5000EFF305838BB101A901F0C2F9012812D14C
:104C6000019B9BB10B4B4FF080521A60BFF34F8FEB
:104C7000BFF36F8F204602B010BD1A46194600F0F0
:104C8000EDFF012802D0FF2002B010BD002002B0CD
:104C900010BD00BF04ED00E010B5EFF305841CB9B2
:104CA00001F074FD204610BD822010BD80B5174C68
:104CB000DFF86480164E174FDFF860A04FF0805980
:104CC00015E002F087F8D8F80C30DD68281D00F0F8
:104CD000E9FE3368013B33602368013B236002F047
:104CE0009BF8286B02F03AFA284602F037FA23685C
:104CF000002BE6D13B68012B05D9CAF80090BFF321
:104D00004F8FBFF36F8F02F049FAF0E7B40600202F
:104D1000B0060020C00500202807002004ED00E0B8
:104D2000F8B51B4B1B4E1C6833680546181D0F4613
:104D300000F0B8FE40B933681749D86A0B68012201
:104D4000824023EA02030B606B1C17D0336864199E
:104D50005C6007D3114B18683168BDE8F840043136
:104D600000F086BE0E4B18683168043100F080FEFA
:104D70000C4B1A68A24288BF1C60F8BD002FE5D01A
:104D8000316809480431BDE8F84000F061BE00BF59
:104D90003C070020B4050020C4060020BC0500200C
:104DA000B8050020F4060020140700202DE9F84F74
:104DB0009600074630460D46984602F073F90028E3
:104DC00000F0B58081465C2002F06CF904460028B2
:104DD00000F0B980C0F8309032464846A52108F06E
:104DE000B1F8D4F830A0002D00F0BF802B7884F803
:104DF0003430002B36D06B7884F8353093B3AB78F1
:104E000084F8363073B3EB7884F8373053B32B79AA
:104E100084F8383033B36B7984F8393013B3AB7915
:104E200084F83A30F3B1EB7984F83B30D3B12B7A84
:104E300084F83C30B3B16B7A84F83D3093B1AB7AEF
:104E400084F83E3073B1EB7A84F83F3053B12B7B5A
:104E500084F8403033B16B7B84F8413013B1AB7BC5
:104E600084F84230002384F843300A9D0B2D28BF7C
:104E70000B254FF0000B04F10409E562C4E9135B54
:104E80004846043E00F0E0FDC5F10C0504F11800B1
:104E9000564400F0D9FDC4F854B0A56126F00700CF
:104EA00084F858B0246164624246394601F066FFD6
:104EB0000B9B206003B11C6001F08CFF3F4A404E09
:104EC0001368013313603368002B45D03D4FE06A0F
:104ED0003B6883B3DFF81081DFF810E13A4ADEF86F
:104EE0000030D2F800C001252B44CEF800306364B6
:104EF00005FA00F300EB800043EA0C03494608EB97
:104F00008000136000F0A4FD01F086FF3B6803B34E
:104F10003268E36AD26A9A421BD22C4B4FF080521D
:104F20001A60BFF34F8FBFF36F8F284601E04FF039
:104F3000FF30BDE8F88F3368DFF8AC80DB6A83426E
:104F400098BF3460C8E7484602F008F94FF0FF30D8
:104F5000EFE72846BDE8F88F34601368012B07D0CF
:104F6000E06ADFF88480174FB6E784F834507CE7B6
:104F7000DFF87480454608F1F0072846143500F044
:104F800057FDBD42F9D1DFF868A0114D0D4F5046D5
:104F900000F04EFD284600F04BFD0E4800F048FDA5
:104FA0000D4800F045FD0D4800F042FD0C4A0D4B48
:104FB000C2F800A0E06A1D608EE700BFB0060020C6
:104FC000B405002010070020C406002004ED00E016
:104FD000DC060020FC060020280700201407002023
:104FE000B8050020BC050020C0050020C006002038
:104FF000C80600202DE9F0474FF4007002F052F887
:1050000000284BD005465C2002F04CF804460028EE
:1050100041D04FF40072A5210563284607F092FFA6
:1050200000255E4B636304F104084046266B84F858
:10503000385084F84350E562C4E9135500F004FD8C
:1050400004F1180000F000FD0C2306F5FE702A465E
:105050006565A3615249246120F0070084F8585027
:10506000646201F08BFE4F4B20601C6001F0B2FEC9
:105070004D4B4E4F1A6801321A603A68BAB14C4E25
:10508000E06A3368002B5DD13B684A4DDB6A83429E
:1050900098BF3C6012E0284602F060F84FF05003E1
:1050A00083F31188BFF36F8FBFF34F8FFEE73C6030
:1050B0001B68012B4CD0E06A3E4D3D4EDFF81CC111
:1050C0003D4ADCF80030D2F8009003F1010E0123D4
:1050D000834000EB800043EA09034146C4F844E002
:1050E00005EB80001360CCF800E000F0B1FC01F0AB
:1050F00093FE336863B13A68E36AD26A9A4207D290
:105100002E4B4FF080521A60BFF34F8FBFF36F8F5B
:1051100001F0AAFD012817D14FF0500383F3118845
:10512000BFF36F8FBFF34F8F2549264B4FF0FF34EE
:1051300000220C6030601A6002F062F8BDE8F047AF
:1051400001F0E4BE1B4DB9E70130A7D0BDE8F08700
:10515000184D2E4605F1F0093046143600F068FC73
:10516000B145F9D1DFF878A0DFF87890104E5046BD
:1051700000F05EFC484600F05BFC134800F058FC71
:10518000124800F055FC124800F052FC114A124B34
:10519000C2F800A0E06AC3F800908FE749444C458C
:1051A000AD4C0008F0060020B0060020B405002039
:1051B00010070020C0050020C406002004ED00E018
:1051C000F40600203C070020FC06002028070020F1
:1051D00014070020B8050020BC050020C0060020F0
:1051E000C8060020DC060020024A13680133136061
:1051F000704700BFBC060020014B1868704700BF15
:105200003C07002008B501F01FFF014B186808BDDE
:105210003C0700202DE9F84F4F4B1B68002B3DD178
:105220004E4B1E6801361E60FEB1DFF850B1DBF850
:105230000020B2423AD94A4FDFF844810025D8F81D
:1052400000304849DB6A03EB83039B00FA580B6884
:10525000022A28BF0125002B77D0434B1B68002B67
:105260000CBF28460120BDE8F88F404C23681B681E
:10527000002B58D13E4B21683E4A186820601960C7
:1052800013680133136023681B68002B54D1DFF8C7
:10529000ECB04FF0FF32CBF80020C8E7314A13687A
:1052A00001331360002501F085FFD6E72F4C2C4F0A
:1052B000DFF8CC8000252DE02268D268D2F80C906F
:1052C000D9F8041009F1040A8E42504640D300F088
:1052D000E9FBD9F8281009F1180009B100F0E2FB48
:1052E000254AD9F82C001368012101FA00FC00EBD3
:1052F0008000514607EB80004CEA030CC2F800C066
:1053000000F0A6FBD8F80000D9F82C10C26A914230
:1053100028BF012522681268002ACDD14FF0FF3244
:10532000CBF800208BE74FF0500383F31188BFF3D5
:105330006F8FBFF34F8FFEE72268DFF840B0D2686F
:10534000D2685268CBF8002071E701F033FF84E7A0
:10535000CBF8001073E700BFBC0600203C0700201C
:10536000C0050020B806002040070020B805002036
:10537000BC050020F8060020C4060020F40600202A
:10538000B40500202DE9F84F01F024FD3E4B1A68CA
:10539000013A1A601B68002B5FD13C4B1B68002B45
:1053A0005BD0DFF804B1DBF80030002B69D0384D5A
:1053B000DFF8F880374FDFF8F8900126DBF80C3083
:1053C000D3F80CA00AF104040AF1180000F06AFBFB
:1053D000204600F067FBDAF82C002A6806FA00F392
:1053E00000EB80001343214608EB80002B6000F0A7
:1053F0002FFB3B68DAF82C20DB6A9A4233D3C9F8DA
:105400000060DBF80030002BD8D1234B1A681268FB
:10541000002A31D01A68214BD268D26852681A60CB
:105420001F4E346844B10125FFF7F4FE08B1C9F8F6
:105430000050013CF8D13460D9F800306BB1194B01
:105440004FF080521A60BFF34F8FBFF36F8F01246C
:1054500001F0E2FC2046BDE8F88F002401F0DCFCFE
:105460002046BDE8F88FDBF80030002BA6D10A4BB0
:105470001A681268002ACDD1084B4FF0FF321A602B
:10548000CEE7DFF82C90CBE7BC060020B00600206A
:10549000C4060020B4050020B8050020F406002052
:1054A000B806002004ED00E0FC060020C005002046
:1054B00040070020064B1B6843B94FF0500383F3AD
:1054C0001188BFF36F8FBFF34F8FFEE7FFF75ABF0F
:1054D000BC06002010B540B9144B4FF080521A6042
:1054E000BFF34F8FBFF36F8F10BD114C216841B1D7
:1054F0004FF0500383F31188BFF36F8FBFF34F8FCB
:10550000FEE7236801332360FFF70AFC236843B9F1
:105510004FF0500383F31188BFF36F8FBFF34F8FAA
:10552000FEE7FFF72FFF0028D6D010BD04ED00E006
:10553000BC06002008B5194B1B681BB1184B012293
:105540001A6008BD164A136001F06CFE154B1B680B
:10555000B3FA83F3DBB2C3F11F0303EB83039B00B6
:105560001149CA58C81842B94FF0500383F3118843
:10557000BFF36F8FBFF34F8FFEE742680833526867
:1055800042600B449A4208BF5268084B08BF426011
:10559000D2681A60BDE8084001F032BEBC060020A7
:1055A00040070020C4060020C0050020B4050020EC
:1055B00020B370B51F4D0C462968183100F058FA19
:1055C0001D4B1E682868043000F06CFA40B92B6847
:1055D0001A49D86A0B680122824023EA02030B6051
:1055E000631C14D02B68A4195C6017D3144B186883
:1055F0002968BDE87040043100F03ABA4FF050031A
:1056000083F31188BFF36F8FBFF34F8FFEE72968D5
:105610000C480431BDE8704000F01ABA0A4B186813
:105620002968043100F024FA084B1A68944238BF04
:105630001C6070BDB40500203C070020C40600209B
:10564000BC05002014070020B8050020F406002047
:1056500038B588B10D4B0D4619681446183100F065
:10566000F7F9002C08BF2846214618BF4FF0FF303D
:10567000BDE83840FFF754BB4FF0500383F3118867
:10568000BFF36F8FBFF34F8FFEE700BFB40500205D
:10569000F8B5C368DC6854B304F11805284600F077
:1056A00001FA174B1B6873B12946164800F0D0F970
:1056B000154BE26A1B68DB6A9A4283BF134B0120D9
:1056C00018600020F8BD261D114D304600F0EAF9A3
:1056D000E26A2F680F480123934002EB82023B43AA
:1056E000314600EB82002B6000F0B2F9E0E74FF0AA
:1056F000500383F31188BFF36F8FBFF34F8FFEE723
:10570000BC060020FC060020B40500204007002055
:10571000C4060020C0050020034A044B12681B6821
:10572000C0E90023704700BFF80600203C070020B6
:10573000F8B508B3B9B10D46044601F04BFB2B6830
:10574000DFF878C05A1CDCF800102BD01A4ED4E9D0
:1057500000023768B84218D08A4216D8012501F0F5
:105760005BFB2846F8BD4FF0500383F31188BFF36D
:105770006F8FBFF34F8FFEE74FF0500383F3118815
:10578000BFF36F8FBFF34F8FFEE78F1ABB420ED967
:105790005B1A13443168DCF800202B600025C4E953
:1057A0000012DCE7002501F037FB2846F8BD002396
:1057B0002B600125D3E700BFF80600203C0700203E
:1057C000014B01221A60704740070020014B186806
:1057D000704700BFB4050020054B1B6833B1054B73
:1057E0001B68002B0CBF022000207047012070476F
:1057F00010070020BC06002018B3F8B5264CC36A79
:105800002268D26A934214D28269002A04DB226899
:10581000D26AC2F10C028261204D426903EB83031C
:1058200005EB83039A420DD02368DB6AC362012033
:10583000F8BD2368C06CDB6A98422CBF00200120B1
:10584000F8BD7047071D0646384600F02BF970B9C1
:10585000F16A134A01EB81039B00EB5843B91368CB
:10586000012000FA01F123EA0103136000E00C4A71
:105870002368D2F800C0D86AF062012404FA00F369
:1058800000EB800005EB800043EA0C03394613600F
:1058900000F0DEF82046F8BDB4050020C005002069
:1058A000C4060020C0B1F8B5284B1B68834208D05D
:1058B0004FF0500383F31188BFF36F8FBFF34F8F07
:1058C000FEE71B6D53B1C16AC26C013B9142036597
:1058D00000D063B10020F8BD002070474FF05003A6
:1058E00083F31188BFF36F8FBFF34F8FFEE7071D60
:1058F0000446384600F0D6F8C0B11548154AE36CA6
:10590000D2F800E0E3620125C3F10C0C05FA03F6BE
:1059100003EB830346EA0E0600EB83003946C4F826
:1059200018C0166000F094F82846F8BDE16A0848EF
:10593000084A01EB81039B00C358002BDFD1136899
:1059400001258D4023EA05031360D8E7B405002044
:10595000C0050020C4060020A8B1F8B5046D4CB104
:10596000C26CC36A8A4238BF0A46934201D0012CF6
:105970000AD0F8BD4FF0500383F31188BFF36F8F47
:10598000BFF34F8FFEE7704720490968814225D059
:105990008169C2620029A8BFC2F10C021C4DA8BFD8
:1059A000826103EB8303426905EB83039A42E0D1F2
:1059B000071D0446384600F075F8E26AB8B10123C5
:1059C000144C9340900026681044334305EB80004C
:1059D00039462360BDE8F84000F03AB84FF0500374
:1059E00083F31188BFF36F8FBFF34F8FFEE79000F3
:1059F0008118890001236958064C93400029E2D19F
:105A0000216821EA03012160DDE700BFB405002021
:105A1000C0050020C4060020044B1A681AB119689A
:105A20000A6D01320A651868704700BFB40500208E
:105A300000F108034FF0FF310022816002604360F3
:105A4000C0E90333704700BF00230361704700BF04
:105A50004368026810B49C688C609C684B6001329B
:105A6000616099605DF8044B08610260704700BF97
:105A700030B40D686B1C11D000F1080200E01A462A
:105A800053681C68AC42FAD904684B6001349960D1
:105A90008A6051600861046030BC704702695368D5
:105AA000F2E700BF036910B4D0E901125C688A60B4
:105AB0008442516008BF5A601A685DF8044B0021A7
:105AC000013A01611A601868704700BF70B5164648
:105AD000026C856B04462AB90668013546B300207E
